:1000260000200020002000200020002000200020CA
:1000360000200020002000200020002000200020BA
:10004600FFFF0000000064DB8AAA8AAA8AABEEAA38
:10005600AAAAEAAB0000656695499549956F954A47
:10006600954962680000E000400840005A6B574A14
:100076005A4B52495B4B000000000000000055D16E
:100086005499549554955495549329D100000000E1
:10009600000000000000FFFFFFFFFDFFFAFFFC7FEE
:1000A600F1BFF75FFA5FFD5FFE3FFE3FFE1FFCCF2D
:1000B600FDEFF9E7F9F7FFFFFFFFFF3FFEBFFF0F79
:1000C600FED7FE5BFCB7FCAFFD1FFF1FFE0FFCE774
:1000D600F9F7FBF7F3F3FFFFFFFFFFFFFF9FFF5F5C
:1000E600FF87FE6BFEABFEDBFED7FF4FFF0FFE0763
:1000F600FCF3FBFBFBFBFFFFFFFFFE7FFD7FFE7FAD
:10010600F807F9F7FAEBFD5BFEBBFF37FF0FFE07BB
:10011600FCF3FBFBFBFBFFFFFFFFFFFFFF9FFF5F08
:10012600FF87FE6BFEABFEDBFED7FF4FFF0FFE0722
:10013600FCF3FBFBFBFBFFFFFFFFFF3FFEBFFF0FD9
:10014600FED7FE5BFCB7FCAFFD1FFF1FFE0FFCE7F3
:10015600F9F7FBF7F3F3002E002A002A002A002EF7
:10016600002C002400240024002E002E0022002E45
:100176000028002E002E0022002E0022002E002A2B
:10018600002A002E00220022002E0028002E002227
:10019600002E002E0028002E002A002E002E0022FF
:1001A600002200220022002E002A002E002A002E05
:0E01B600002E002A002E002200220000000071
:100E8A002020307F021F101F101F10FE00F010F0EC
:100E9A0010F0101F080F0816210E70F000F0204005
:100EAA0080700E0225025802570258025502580253
:070EBA005102580221025809
:060FCE00AE071FEE70FAF1
:010FD40022FA
:100F0D00D3EF9400EE940040147D6F7C00ED1D70C6
:0D0F1D00011CED4C70F7EF1F70E61E80E325
:010F2A0022A4
:050EEC00120EF1AF053C
:100EF1007E08EEC3940174809480400FC2A0EF334A
:0B0F010092A1EF25E0FFD2A01E80E7C8
:010F0C0022C2
:080F6A00AF04742F2CF8E6FD22
:080F7200C2A2120EECD2A22271
:080F7A00AF0474372CF8E6FD0A
:080F8200C2A3120EECD2A3225F
:080F8A00AF04743F2CF8E6FDF2
:080F9200C2A4120EECD2A4224D
:080F9A00AF0474472CF8E6FDDA
:080FA200C2A5120EECD2A5223B
:100B2300E4FD7F09120F727D037F0A120F727D07A6
:100B33007F0B120F727D017F0C120F721D7F0F123C
:100B43000F727F09120F827D037F0A120F827D07C6
:100B53007F0B120F827D017F0C120F821D7F0F12FC
:100B63000F827F09120F927D037F0A120F927D0776
:100B73007F0B120F927D017F0C120F921D7F0F12BC
:100B83000F927F09120FA27D037F0A120FA27D0726
:100B93007F0B120FA27D017F0C120FA21D7F0F028C
:020BA3000FA29F
:100D1E007C01ECC39409748094805006120F6A0C07
:100D2E0080F07C01ECC39409748094805006120FFD
:100D3E007A0C80F07C01ECC3940974809480500688
:100D4E00120F8A0C80F07C01ECC39409748094809D
:0F0D5E005006120F9A0C80F07F0F7E00020F0DCF
:100D6D007C01ECC39409748094805006120F6A0CB8
:100D7D0080F07C01ECC39409748094805006120FAE
:100D8D007A0C80F07C01ECC3940974809480500639
:100D9D00120F8A0C80F07C01ECC39409748094804E
:0F0DAD005006120F9A0C80F07F0F7E00020F0D80
:1001C40012073DEF1470030202511470030202F08F
:1001D40024FE700302028D1470030202C62402601E
:1001E400030202F4E52B70030202F4C2AFE4FDAF94
:1001F40028120416AA06AB07AD2BAF2A120540E459
:1002040033FFE529640370047E0180027E00EE5F03
:10021400600AE4F529120FB87D03801FE52904FD67
:10022400AF28120416AA06AB07AD2BAF2A1205405D
:1002340050180529120FB8E52914FDAF2812041629
:10024400AA06AB07120805120DBCD2AF22E52B702B
:10025400030202F4C2AF1205365014052BE52B1429
:10026400FDAB2DAA2CAF2A120809120DBC80E7128F
:1002740008BF120EC2120FB8120CC8920412096AF7
:10028400120801120DBCD2AF22E52B6063C2AFE5A8
:100294002A14FFAB2DAA2CAD2B120540E433FFE545
:1002A4002A60047E0180027E00EE5F6012152AE55A
:1002B4002A04FFAB2DAA2CAD2B120809120DBCD2B7
:1002C400AF22E52B602AC2AFE52A04FFAB2DAA2C8E
:1002D400AD2B1205405012052AE52A14FFAB2DAAB6
:1002E4002CAD2B120809120DBCD2AF22C2AFD2031F
:0102F40022E7
:03073A00120D1E7F
:10073D00E4FF20B51EC3E5589458E5579402500ABE
:10074D000558E55870130557800FE4F557F5587F98
:10075D0001800675570275585820B41EC3E52694BE
:10076D0058E5259402500A0526E5267013052580C7
:10077D000FE4F525F5267F028006752502752658AE
:10078D0020871EC3E5229458E5219402500A0522C4
:10079D00E52270130521800FE4F521F5227F0380FA
:1007AD000675210275225820B61EC3E5569458E5EC
:1007BD00559402500A0556E55670130555800FE401
:1007CD00F555F5567F04800675550275565820B7B8
:1007DD001CC3E5529458E551940250090552E55257
:1007ED007011055122E4F551F5527F052275510224
:0307FD00755258DA
:0108000022D5
:100EC200855428855029752A03E4F52BE5536407D8
:100ED200700BE58A75F0078485F0548006855354BB
:0A0EE200755307E58A5403F550220A
:10041600EFB407004003020531900426F82828733C
:1004260002043B02045E02048B0204B70204D102FA
:1004360004EF02050DED14600F14600E1460122413
:10044600036003020531800280077AF07B00020513
:10045600317488FAFB020531ED1460141460181427
:10046600601C240360030205317AE87B0002053133
:100476007AC47B400205317A2E7B000205317A88E8
:100486007BC0020531ED14601414601814601C243E
:100496000360030205317AE27B000205317A447B70
:1004A600C00205317A8E7B000205317AC87B8080D6
:1004B6007AED14600C14600B14600A2403706C80CF
:1004C60004800280007ACC7B008060ED14600C14FE
:1004D600600B14600E24037052800280067AC67B7D
:1004E6000080487A4C7B808042ED14600C14600BCF
:1004F60014600E24037034800280067A6C7B0080C0
:100506002A7A8C7B408024ED1460101460131460EA
:1005160016240370167A4E7B0080107A8C7B8080BE
:0F0526000A7AE47B0080047A4C7B40AF03AE027C
:0105350022A3
:0C0FB800AD29AF281204168E2C8F2D22BC
:08080100AB2DAA2CAD2BAF2A90
:040809008F0EA905A0
:10080D00E4FDEDC3940474809480504C7E00EB5451
:10081D000FFFC3740C950EFCEFA804088005C333BD
:10082D00CE33CED8F9F4FFEEF4FEC374039D29FC4C
:10083D0025E02459F8EE56FEEF0856FFEC25E0248E
:10084D0059F8A60608A607EAC4F854F0C868FAEBEA
:10085D00C4540F48FB0D80AAAA2CAB2DE4FDEDC3AB
:10086D0094047480948050497E00EB540FFFC37440
:10087D000C952AFCEFA804088005C333CE33CED8DF
:10088D00F9FFC374039D252BFC25E02459F8EE4692
:10089D00FEEF0846FFEC25E02459F8A60608A6074A
:1008AD00EAC4F854F0C868FAEBC4540F48FB0D8045
:0108BD00AD8D
:0108BE002217
:100DBC00E4FDEDC3940874809480503BED25E02451
:100DCC0059F9E7FF74302DF8A607ED25E0245AF900
:100DDC00E7FF74382DF8A607ED25E02469F9E7FF45
:100DEC0074402DF8A607ED25E0246AF9E7FF744856
:070DFC002DF8A6070D80BBD6
:010E030022CC
:100E4800C3E5279414748094805003052722E4F5A1
:100E580027120536500C052BE52B14FDAB2DAA2CBB
:100E680080171208BF120EC2120FB8120CC89204D3
:100E780012096AAB2DAA2CAD2BAF2A120809120D44
:020E8800BC228A
:0A0FC400438903D28CD2A9D2AF22D8
:03000B00020C7272
:100C7200C0E0C0F0C083C082C0D075D000C000C048
:100C820001C002C003C004C005C006C007758C00C5
:100C9200758A00C3E523940A748094805004052366
:100CA2008009752300120E48120D1ED007D006D0FF
:100CB20005D004D003D002D001D000D0D0D082D051
:060CC20083D0F0D0E03207
:0D0FAA00E4FF3098FDC2AFAF99C298D2AFFE
:010FB7002217
:080003008F993099FDC299228A
:100F44001203EBFF600C120003740129F9E43AFA6E
:020F540080EE2D
:010F56002278
:100F2B00759850438920758DFD758BFDD28EC29FB0
:090F3B00D29ED29CD2AFD2AC22AE
:03002300020A9D31
:100A9D00C0E0C0D075D000C000C002C003C004C00B
:050AAD0005C006C007B2
:100AB200120FAAEFFD601D64016019ED640260145B
:100AC200ED6403600FED6404600AED64056005EDFA
:100AD200640670028F53E4FDEDC394107480948019
:100AE200501DED25E02459F8E6FE08E6FBAA06AF04
:100AF20003EFFCAF06120003FF1200030D80D9AF13
:0E0B020028120003AF541200037FFF120003FD
:100B1000D007D006D005D004D003D002D000D0D06A
:030B2000D0E032F0
:0A053600E52B04FDAB2DAA2CAF2A23
:080540008F0E8A0F8B10A90534
:10054800D202AD2DAC2CE4FBEBC3940474809480F0
:10055800504D7E00ED540FFFC3740C952AFAEFA896
:1005680002088005C333CE33CED8F9F4FFEEF4FE8B
:10057800C374039B252BFA25E02459F8EE56FEEFA9
:100588000856FFEA25E02459F8A60608A607ECC491
:10059800F854F0C868FCEDC4540F48FD0B80A9ACB2
:1005A8000FAD10E4FBEBC394047480948050407E3C
:1005B80000ED540FFFC3740C950EFAEFA8020880E3
:1005C80005C333CE33CED8F9FFC374039B2925E086
:1005D8002459F8EE56FEEF08564E6002C202ECC4EB
:1005E800F854F0C868FCEDC4540F48FD0B80B6AC55
:1005F8002CAD2DE4FBEBC394047480948050497EA9
:1006080000ED540FFFC3740C952AFAEFA802088076
:1006180005C333CE33CED8F9FFC374039B252BFA19
:1006280025E02459F8EE46FEEF0846FFEA25E024C7
:1006380059F8A60608A607ECC4F854F0C868FCEDFB
:0A064800C4540F48FD0B80ADA20260
:010652002285
:1008BF00E4F50E780F7C00FD7BFF7A0179C0FE7F97
:1008CF00041203C5E4FFEFC394107480948050307A
:1008DF00EF25E02459F8E6FC08E654C0FDBCFF1DE7
:1008EF00BDC01AEF04FE740F250EF8A606050E05FF
:1008FF002FE52F7002052EE50E640460030F80C6EE
:10090F00E4F50EE50EC3940474809480504C740F7C
:10091F00250EF8E6604014FFEFD3940074809480A6
:10092F004034EF25E02459F808E6543FFDEF25E069
:10093F002457F8E6FA08E654C0FBEAFCEB4DFDEF4E
:10094F0025E02459F8A60408A605E47859F608E628
:0A095F00543FF61F80C2050E80A968
:01096900226B
:10096A00AD50AF541204168F828E83E4F9E9C39412
:10097A0004748094805039C3740399FF25E0245984
:10098A00F8E6FC08E654F0FDE582540FFBEB4DFD5A
:10099A00EF25E02459F8A60408A605E583C4F8540F
:1009AA00F0C868F583E582C4540F48F5820980BD12
:1009BA007905E9C3940A74809480504AAE2EAF2F09
:1009CA007D057C00120404E92FFFEC3EFEEF25E0D2
:1009DA00FFEE33FE74522FF58274013EF583E493E1
:1009EA00FE740193FFE925E02459F8E6FC08E65471
:1009FA00F0FDEE4CFEEF4DFFE925E02459F8A6067E
:060A0A0008A6070980ACFC
:010A100022C3
:100BA500E4FFEFC39413748094805021EF25E02473
:100BB50026F582E43400F583E493FC740193FDEF9C
:100BC50025E02459F8A60408A6050F80D5C204120D
:100BD5000EC2120FB812096A120801120DBC120FCB
:100BE500C4200413C3E52F940AE52E94005008127F
:100BF50001C412000E80EAC2AFC3E52F940AE52EA8
:0A0C050094004003020E04120C10CC
:010C0F0022C2
:100C1000D202E4FFEFC3940874809480503FEF2524
:100C2000E0244CF582E43400F583E493FC740193F2
:100C3000FDEF25E02459F8A60408A605EF25E024D9
:100C40005CF582E43400F583E493FC740193FDEFDA
:100C500025E02469F8A60408A6050F80B7120DBC8C
:100C600030020C12073AEF24FD70F5C20280F10247
:020C7000065329
:100E0400D202E4FFEFC39410748094805021EF2544
:100E1400E0247CF582E43400F583E493FC740193CC
:100E2400FDEF25E02459F8A60408A6050F80D51285
:100E34000DBC30020C12073AEF24FD70F5C202809B
:040E4400F10206535E
:100F5700E4F527F523755406755002755307C20447
:030F6700C20322A0
:10065300D201120F57120F2BE4FBEBC394107480DB
:100663009480500DEB25E02459F8E4F608F60B804E
:10067300E9300163E4F50DC3E50D940674809480BD
:1006830050EFE4FAEAC39404748094805045E4FB89
:10069300EBC39410748094805026E50DC454F02B62
:1006A30025E0249CF582E43400F583E493FE740191
:1006B30093FFEB25E02459F8A60608A6070B80D084
:1006C300120DBC120D6D12073DEF24FD7002C20125
:1006D3000A80B1050D80A0D201E4FBEBC394107432
:1006E300809480500DEB25E02459F8E4F608F60BCE
:1006F30080E9E4FBEBC39408748094805021EB25DC
:10070300E0246CF582E43400F583E493FE740193F2
:10071300FFEB25E0245FF8A60608A6070B80D51299
:100723000DBC30010F120D1E12073DEF24FD70F2B8
:07073300C20180EE020BA5DC
:100CC800C202AD2DAC2CE4FBEBC394047480948079
:100CD80050417E00ED540FFFC3740C952AFAEFA81B
:100CE80002088005C333CE33CED8F9FFC374039B03
:100CF800252B25E02459F8EE56FEEF08564E6002E3
:100D0800D202ECC4F854F0C868FCEDC4540F48FD96
:050D18000B80B5A202F2
:010D1D0022B3
:10000E0030030D12073DEF64026005120D1E80F3E2
:05001E00C203D2AF2275
:060FD500120B230206537B
:03000000020A11E0
:0C0A1100787FE4F6D8FD75817E020A585B
:1002F500E709F608DFFA8046E709F208DFFA803EEB
:1003050088828C83E709F0A3DFFA8032E309F608D7
:10031500DFFA8078E309F208DFFA807088828C833F
:10032500E309F0A3DFFA806489828A83E0A3F608F3
:10033500DFFA805889828A83E0A3F208DFFA804CCD
:1003450080D280FA80C680D4806980F280338010A4
:1003550080A680EA809A80A880DA80E280CA80330D
:1003650089828A83ECFAE493A3C8C582C8CCC58385
:10037500CCF0A3C8C582C8CCC583CCDFE9DEE78055
:100385000D89828A83E493A3F608DFF9ECFAA9F0D4
:10039500EDFB2289828A83ECFAE0A3C8C582C8CC2A
:1003A500C583CCF0A3C8C582C8CCC583CCDFEADE43
:1003B500E880DB89828A83E493A3F208DFF980CCA5
:1003C50088F0EF60010E4E60C388F0ED2402B4049E
:1003D5000050B9F582EB2402B4040050AF23234545
:0603E50082239003457322
:1003EB00BB010689828A83E0225002E722BBFE0210
:0903FB00E32289828A83E4932243
:10040400EF8DF0A4A8F0CF8CF0A428CE8DF0A42E0C
:02041400FE22C6
:100A1D00020FD5E493A3F8E493A34003F68001F20B
:100A2D0008DFF48029E493A3F85407240CC8C333DA
:100A3D00C4540F4420C8834004F456800146F6DFA9
:100A4D00E4800B0102040810204080900E8AE47EA1
:100A5D00019360BCA3FF543F30E509541FFEE4939E
:100A6D00A360010ECF54C025E060A840B8E493A365
:100A7D00FAE493A3F8E493A3C8C582C8CAC583CA90
:100A8D00F0A3C8C582C8CAC583CADFE9DEE780BE48
:010EC1000030
:00000001FF
