:03000000020006F5
:0C000600787FE4F6D8FD758113020156E6
:1001560075A88575B801E4F59012012C6390FF80AF
:01016600F8A0
:03000300020016E2
:10001600C0E0C0F0C083C082C0D075D000C000C0B0
:0D00260001C002C003C004C005C006C00731
:10003300AF907508008F097F037E001200A8850921
:01004300902C
:10004400D007D006D005D004D003D002D001D00010
:0B005400D0D0D082D083D0F0D0E032BA
:0300130002005F89
:10005F00C0E0C0F0C083C082C0D075D000C000C067
:0D006F0001C002C003C004C005C006C007E8
:10007C00AF90750E008F0F7F037E001200EA850F84
:01008C0090E3
:10008D00D007D006D005D004D003D002D001D000C7
:0B009D00D0D0D082D083D0F0D0E03271
:04012C007FFA7E00D8
:10013000E4FDFCC3ED9FEE6480F8EC6480985015FC
:10014000E4FBFA0BBB00010AEB64784A70F50DBDC5
:0501500000010C80DE3F
:010155002287
:0400A8008E0A8F0B22
:1000AC00E4F50CF50DC3E50D950BE50A6480F8E558
:1000BC000C64809850277590FE90000012012CE57E
:1000CC009025E04401F590A3E5826407458370EC2C
:0D00DC0012012C050DE50D70CC050C80C83F
:0100E90022F4
:0400EA008E108F11D4
:1000EE00E4F512F513C3E5139511E5106480F8E5F8
:1000FE0012648098502775907F90000012012CE5B5
:10010E0090C3134480F590A3E5826407458370EC99
:0D011E0012012C0513E51370CC051280C8EA
:01012B0022B1
:00000001FF
