:10222A006176655F6572723A252E31306600726595
:10223A0073756C742D00252E316620252E3166208B
:10224A00252E316620252E3166006F6B2D003F80CA
:10225A000000000000003F800000000000003F80F6
:10226A00000000000000000000003F8000000000A5
:10227A0000003F800000000000003F8000003F8017
:10228A0000003F8000003F8000003F8000003F8048
:10229A0000003F8000000000000000000000000075
:1022AA0000000000000000000000000000003E994D
:1022BA00999A3F3333333F0000003F0000003F4C00
:1022CA00CCCD3DCCCCCD3F4CCCCD3ECCCCCD3F19AA
:0222DA00999ACF
:10255B00D3EF9400EE9400400F7D267C82DCFEDDF1
:08256B00FAEF1F70EB1E80E87F
:012573002245
:0923E200E4F5287B017A0079E89A
:0623EB008B228A238924E5
:1023F1001225748F29AB25AA26A9271225748F2AA5
:102401007F011225897F80122589E4F52BE52BC3F5
:1024110095295017AB22AA23A924852B8275830005
:10242100121971FF122595052B80E27FC0122589B3
:10243100E4F52BE52BC3952A5017AB25AA26A9272E
:10244100852B82758300121971FF122595052B804A
:0B245100E2E528B401057F0712258991
:01245C00225D
:101FA400752602752701752800752988752A037519
:101FB4002B01752C00752DF27A0079007B017D03CD
:101FC4008B228A2389248D25E4F50CE50CC3952501
:101FD4004003022088E4F50DE50DC3952A40030271
:101FE4002083E4F50BF50AF509F508F50EE50EC3B3
:101FF40095265062AB0BAA0AA909A808C000C00123
:10200400C002C003AB27AA28A92975F00CE50EA4C9
:10201400F58285F08375F004E50D121A711219B07A
:10202400AB22AA23A92475F008E50CA4F58285F057
:102034008375F004E50E121A71121A04121463D097
:1020440003D002D001D0001213728F0B8E0A8D09B7
:102054008C08050E8097AF0BAE0AAD09AC08AB2B0C
:10206400AA2CA92D75F00CE50CA4F58285F08375D6
:10207400F004E50D121A711219E0050D021FDC05BA
:052084000C021FCF2239
:102089007526037527017528007529A0752A01751C
:102099002B01752C01752D467B017A01793A7D0159
:1020A9008B228A2389248D25E4F50CE50CC395251B
:1020B900400302216DE4F50DE50DC3952A400302A5
:1020C9002168E4F50BF50AF509F508F50EE50EC3E7
:1020D90095265062AB0BAA0AA909A808C000C0013D
:1020E900C002C003AB27AA28A92975F004E50EA4EC
:1020F900F58285F08375F004E50D121A711219B095
:10210900AB22AA23A92475F00CE50CA4F58285F06D
:102119008375F004E50E121A71121A04121463D0B1
:1021290003D002D001D0001213728F0B8E0A8D09D1
:102139008C08050E8097AF0BAE0AAD09AC08AB2B26
:10214900AA2CA92D75F004E50CA4F58285F08375F8
:10215900F004E50D121A711219E0050D0220C105EE
:052169000C0220B4226D
:0924E10075F004121A711219B011
:1024EA008F318E308D2F8C2EE4FFFEFDFCAB31AA8E
:1024FA0030A92FA82E121609600C400AAF31AE304F
:0C250A00AD2FAC2E8005E4FFFEFDFC228E
:10245D0012137290014A121A34900146E0FCA3E067
:07246D00FDA3E0FEA3E0FF68
:102474008F258E248D238C22E4FFFEFDFCAB25AA40
:1024840024A923A822121609600B4009E4FFFE7D4B
:0B249400807C3F8005E4FFFEFDFC2281
:10216E009000F2E0FCA3E0FDA3E0FEA3E0FF9001EF
:10217E0016121A34900102E0FCA3E0FDA3E0FEA3C8
:10218E00E0FF90011A121A34900112E0FCA3E0FD58
:10219E00A3E0FEA3E0FF90011E121A34752501750F
:1021AE00260175272E752800752903752A00752BB3
:0721BE00017B017A01791693
:0621C5008B228A2389240D
:1021CB00E4F52CC3E52C9529E5286480F8748098F8
:1021DB00504CE4F52DC3E52D952BE52A6480F8745E
:1021EB0080985036AB22AA23A92475F004E52CA4C1
:1021FB00F58285F083E52D1224E1AB25AA26A927CC
:10220B0075F004E52CA4F58285F08375F004E52DBB
:0E221B00121A711219E0052D80BB052C80A54A
:012229002292
:102362007525017526007527D47528007529017514
:0B2372002A00752B017B017A017946DF
:06237D008B228A23892453
:10238300E4F52CC3E52C9529E5286480F87480983E
:10239300504CE4F52DC3E52D952BE52A6480F874A4
:1023A30080985036AB22AA23A92475F004E52CA407
:1023B300F58285F083E52D1224E1AB25AA26A92712
:1023C30075F004E52CA4F58285F08375F004E52D02
:0E23D300121A711219E0052D80BB052C80A591
:0123E10022D9
:1022DC0075250175260175273A7528007529037532
:0B22EC002A00752B017B017A01792E7E
:0622F7008B228A238924DA
:1022FD00E4F52CC3E52C9529E5286480F8748098C5
:10230D005052E4F52DC3E52D952BE52A6480F87424
:10231D008098503CAB22AA23A92475F004E52CA487
:10232D00F58285F08375F004E52D121A711219B03E
:10233D00AB25AA26A92775F00CE52DA4F58285F00D
:10234D008375F004E52C121A711219E0052D80B574
:04235D00052C809F2C
:012361002259
:1000030078007C007D017BFF7A2279587E007F187F
:10001300121932900030121A400000000078347C2C
:10002300007D017BFF7A2279707E007F18121932DE
:1000330090004C121A400000000078507C007D01B3
:100043007BFF7A2279887E007F181219329000682C
:10005300121A403F800000786C7C007D017BFF7AA0
:100063002279A07E007F18121932900084121A4060
:100073000000000078887C007D017BFF7A2279B83C
:100083007E007F1812193278A07C007D017BFF7AF5
:100093002279D07E007F0C12193290014A121A4045
:1000A3000000000012253D121FA412216E1222DC53
:1000B30012208912236290014AE0F8A3E0F9A3E039
:1000C300FAA3E0FBC000C001C002C003900030E00F
:1000D300F8A3E0F9A3E0FAA3E0FB9000D4E0FCA3CB
:1000E300E0FDA3E0FEA3E0FF12136EE4FBFAF97850
:1000F3003F121463C004C005C006C007900030E07F
:10010300F8A3E0F9A3E0FAA3E0FB9000D4E0FCA39A
:10011300E0FDA3E0FEA3E0FF12136ED003D002D0F4
:1001230001D000121463D003D002D001D0001224F6
:100133005DC004C005C006C007900030E0F8A3E02E
:10014300F9A3E0FAA3E0FB9000D4E0FCA3E0FDA355
:10015300E0FEA3E0FF12136E7BCD7ACC794C783EA0
:10016300121463D003D002D001D0001214639000A4
:10017300D0121A34E4F50CE4F50DE50C25E025E086
:10018300242EF582E43401F58375F004E50D121A8B
:1001930071E0FCA3E0FDA3E0FEA3E0FF9000D0E04C
:1001A300F8A3E0F9A3E0FAA3E0FB121463E50C253E
:1001B300E025E024C4F582E43400F58375F004E51A
:1001C3000D121A71121A34050DE50DB401AC050CAC
:1001D300E50CB403A2E4F50CE4F50DE50C75F008A9
:1001E300A42400F582E43400F58375F004E50D12D0
:1001F3001A71E0FCA3E0FDA3E0FEA3E0FFE50D75AB
:10020300F00CA42418F582E43400F58375F004E5BA
:100213000C121A71121A34050DE50DB402BD050C4A
:10022300E50CB403B3E4F50CE4F50DE4F50BF50AC2
:10023300F509F508F50EAB0BAA0AA909A808C00031
:10024300C001C002C003E50E25E025E024A0F5822D
:10025300E43400F58375F004E50D121A71E0FCA394
:10026300E0FDA3E0FEA3E0FFE50C75F00CA4241869
:10027300F582E43400F58375F004E50E121A71E09B
:10028300F8A3E0F9A3E0FAA3E0FB121463D003D0D0
:1002930002D001D0001213728F0B8E0A8D098C08C5
:1002A300050EE50EB4038FAF0BAE0AAD09AC08E53E
:1002B3000C75F00CA424F2F582E43400F58375F098
:1002C30004E50D121A71121A34050DE50D6401606F
:1002D3000302022E050CE50C6402600302022BE408
:1002E300F50CE4F50DE50C25E025E02416F582E494
:1002F3003401F58375F004E50D121A71E0FCA3E0F7
:10030300FDA3E0FEA3E0FFE50D75F00CA42422F5A8
:1003130082E43401F58375F004E50C121A71121AA4
:1003230034050DE50DB401BD050CE50CB403B3E4D0
:10033300F50CE4F50DE4F50BF50AF509F508F50EF2
:10034300AB0BAA0AA909A808C000C001C002C003D8
:10035300E50E75F00CA42422F582E43401F58375CF
:10036300F004E50D121A71E0FCA3E0FDA3E0FEA387
:10037300E0FFE50C75F00CA424F2F582E43400F5FB
:100383008375F004E50E121A71E0F8A3E0F9A3E017
:10039300FAA3E0FB121463D003D002D001D0001201
:1003A30013728F0B8E0A8D098C08050EE50EB401AE
:1003B3008F9000D0E0FCA3E0FDA3E0FEA3E0FFAB41
:1003C3000BAA0AA909A8081214637BCD7ACC794C2D
:1003D300783E121463E50C75F00CA424ACF582E4AA
:1003E3003400F58375F004E50D121A71121A340501
:1003F3000DE50D64036003020338050CE50C64028C
:100403006003020335E4F50CE4F50DE50C25E02566
:10041300E024A0F582E43400F58375F004E50D12C1
:100423001A71C083C082E0FCA3E0FDA3E0FEA3E059
:10043300FFE50C25E025E024C4F582E43400F583D0
:1004430075F004E50D121A71E0F8A3E0F9A3E0FAE0
:10045300A3E0FB12136ED082D083121A34050DE58C
:100463000DB401A7050CE50CB4039DE4F50CE4F50C
:100473000DE50C75F00CA42488F582E43400F583B3
:1004830075F004E50D121A71C083C082E0FCA3E08D
:10049300FDA3E0FEA3E0FFE50C75F00CA424ACF58E
:1004A30082E43400F58375F004E50D121A71E0F867
:1004B300A3E0F9A3E0FAA3E0FB12136ED082D0838A
:1004C300121A34050DE50DB403A7050CE50CB402AF
:1004D3009D752602752701752800752988752A03DD
:1004E300752B01752C00752DF27A007934121FC01B
:1004F30012216E1222DC12208912236290014AE03B
:10050300F8A3E0F9A3E0FAA3E0FBC000C001C00236
:10051300C00390004CE0F8A3E0F9A3E0FAA3E0FBEA
:100523009000D4E0FCA3E0FDA3E0FEA3E0FF1213E0
:100533006EE4FBFAF9783F121463C004C005C006E9
:10054300C00790004CE0F8A3E0F9A3E0FAA3E0FBB6
:100553009000D4E0FCA3E0FDA3E0FEA3E0FF1213B0
:100563006ED003D002D001D000121463D003D002A6
:10057300D001D00012245DC004C005C006C007909E
:10058300004CE0F8A3E0F9A3E0FAA3E0FB9000D469
:10059300E0FCA3E0FDA3E0FEA3E0FF12136E7BCD1E
:1005A3007ACC794C783E121463D003D002D001D0B8
:1005B300001214639000D0121A34E4F50CE4F50D24
:1005C300E50C25E025E0242EF582E43401F583755E
:1005D300F004E50D121A71E0FCA3E0FDA3E0FEA315
:1005E300E0FF9000D0E0F8A3E0F9A3E0FAA3E0FB7A
:1005F300121463E50C25E025E024C4F582E43400FD
:10060300F58375F004E50D121A71121A34050DE520
:100613000DB401AC050CE50CB403A2E4F50CE4F550
:100623000DE50C75F008A42434F582E43400F58359
:1006330075F004E50D121A71E0FCA3E0FDA3E0FEE2
:10064300A3E0FFE50D75F00CA42418F582E4340053
:10065300F58375F004E50C121A71121A34050DE5D1
:100663000DB402BD050CE50CB403B3E4F50CE4F5DD
:100673000DE4F50BF50AF509F508F50EAB0BAA0A1F
:10068300A909A808C000C001C002C003E50E25E007
:1006930025E024A0F582E43400F58375F004E50D2C
:1006A300121A71E0FCA3E0FDA3E0FEA3E0FFE50C5A
:1006B30075F00CA42418F582E43400F58375F00476
:1006C300E50E121A71E0F8A3E0F9A3E0FAA3E0FB48
:1006D300121463D003D002D001D0001213728F0B17
:1006E3008E0A8D098C08050EE50EB4038FAF0BAE91
:1006F3000AAD09AC08E50C75F00CA424F2F582E40C
:100703003400F58375F004E50D121A71121A3405DD
:100713000DE50D64016003020674050CE50C64022B
:100723006003020671E4F50CE4F50DE50C25E02504
:10073300E02416F582E43401F58375F004E50D1227
:100743001A71E0FCA3E0FDA3E0FEA3E0FFE50D7555
:10075300F00CA42422F582E43401F58375F004E55A
:100763000C121A71121A34050DE50DB401BD050CF6
:10077300E50CB403B3E4F50CE4F50DE4F50BF50A6D
:10078300F509F508F50EAB0BAA0AA909A808C000DC
:10079300C001C002C003E50E75F00CA42422F5824B
:1007A300E43401F58375F004E50D121A71E0FCA33E
:1007B300E0FDA3E0FEA3E0FFE50C75F00CA424F23A
:1007C300F582E43400F58375F004E50E121A71E046
:1007D300F8A3E0F9A3E0FAA3E0FB121463D003D07B
:1007E30002D001D0001213728F0B8E0A8D098C0870
:1007F300050EE50EB4018F9000D0E0FCA3E0FDA34D
:10080300E0FEA3E0FFAB0BAA0AA909A80812146330
:100813007BCD7ACC794C783E121463E50C75F00CE1
:10082300A424ACF582E43400F58375F004E50D12DD
:100833001A71121A34050DE50D6403600302077E75
:10084300050CE50C6402600302077BE4F50CE4F598
:100853000DE50C25E025E024A0F582E43400F583C2
:1008630075F004E50D121A71C083C082E0FCA3E0A9
:10087300FDA3E0FEA3E0FFE50C25E025E024C4F59D
:1008830082E43400F58375F004E50D121A71E0F883
:10089300A3E0F9A3E0FAA3E0FB12136ED082D083A6
:1008A300121A34050DE50DB401A7050CE50CB403CC
:1008B3009DE4F50CE4F50DE50C75F00CA42488F526
:1008C30082E43400F58375F004E50D121A71C083D8
:1008D300C082E0FCA3E0FDA3E0FEA3E0FFE50C750E
:1008E300F00CA424ACF582E43400F58375F004E540
:1008F3000D121A71E0F8A3E0F9A3E0FAA3E0FB12EA
:10090300136ED082D083121A34050DE50DB403A7FC
:10091300050CE50CB4029D752602752701752800A8
:10092300752988752A03752B01752C00752DF27BAB
:10093300017A0079507D03121FC412216E1222DC4A
:1009430012208912236290014AE0F8A3E0F9A3E0A0
:10095300FAA3E0FBC000C001C002C003900068E03E
:10096300F8A3E0F9A3E0FAA3E0FB9000D4E0FCA332
:10097300E0FDA3E0FEA3E0FF12136EE4FBFAF978B7
:100983003F121463C004C005C006C007900068E0AE
:10099300F8A3E0F9A3E0FAA3E0FB9000D4E0FCA302
:1009A300E0FDA3E0FEA3E0FF12136ED003D002D05C
:1009B30001D000121463D003D002D001D00012245E
:1009C3005DC004C005C006C007900068E0F8A3E05E
:1009D300F9A3E0FAA3E0FB9000D4E0FCA3E0FDA3BD
:1009E300E0FEA3E0FF12136E7BCD7ACC794C783E08
:1009F300121463D003D002D001D00012146390000C
:100A0300D0121A34E4F50CE4F50DE50C25E025E0ED
:100A1300242EF582E43401F58375F004E50D121AF2
:100A230071E0FCA3E0FDA3E0FEA3E0FF9000D0E0B3
:100A3300F8A3E0F9A3E0FAA3E0FB121463E50C25A5
:100A4300E025E024C4F582E43400F58375F004E581
:100A53000D121A71121A34050DE50DB401AC050C13
:100A6300E50CB403A2E4F50CE4F50DE50C75F00810
:100A7300A42450F582E43400F58375F004E50D12E7
:100A83001A71E0FCA3E0FDA3E0FEA3E0FFE50D7512
:100A9300F00CA42418F582E43400F58375F004E522
:100AA3000C121A71121A34050DE50DB402BD050CB2
:100AB300E50CB403B3E4F50CE4F50DE4F50BF50A2A
:100AC300F509F508F50EAB0BAA0AA909A808C00099
:100AD300C001C002C003E50E25E025E024A0F58295
:100AE300E43400F58375F004E50D121A71E0FCA3FC
:100AF300E0FDA3E0FEA3E0FFE50C75F00CA42418D1
:100B0300F582E43400F58375F004E50E121A71E002
:100B1300F8A3E0F9A3E0FAA3E0FB121463D003D037
:100B230002D001D0001213728F0B8E0A8D098C082C
:100B3300050EE50EB4038FAF0BAE0AAD09AC08E5A5
:100B43000C75F00CA424F2F582E43400F58375F0FF
:100B530004E50D121A71121A34050DE50D640160D6
:100B630003020ABE050CE50C64026003020ABBE43F
:100B7300F50CE4F50DE50C25E025E02416F582E4FB
:100B83003401F58375F004E50D121A71E0FCA3E05E
:100B9300FDA3E0FEA3E0FFE50D75F00CA42422F510
:100BA30082E43401F58375F004E50C121A71121A0C
:100BB30034050DE50DB401BD050CE50CB403B3E438
:100BC300F50CE4F50DE4F50BF50AF509F508F50E5A
:100BD300AB0BAA0AA909A808C000C001C002C00340
:100BE300E50E75F00CA42422F582E43401F5837537
:100BF300F004E50D121A71E0FCA3E0FDA3E0FEA3EF
:100C0300E0FFE50C75F00CA424F2F582E43400F562
:100C13008375F004E50E121A71E0F8A3E0F9A3E07E
:100C2300FAA3E0FB121463D003D002D001D0001268
:100C330013728F0B8E0A8D098C08050EE50EB40115
:100C43008F9000D0E0FCA3E0FDA3E0FEA3E0FFABA8
:100C53000BAA0AA909A8081214637BCD7ACC794C94
:100C6300783E121463E50C75F00CA424ACF582E411
:100C73003400F58375F004E50D121A71121A340568
:100C83000DE50D64036003020BC8050CE50C64025B
:100C93006003020BC5E4F50CE4F50DE50C25E02536
:100CA300E024A0F582E43400F58375F004E50D1229
:100CB3001A71C083C082E0FCA3E0FDA3E0FEA3E0C1
:100CC300FFE50C25E025E024C4F582E43400F58338
:100CD30075F004E50D121A71E0F8A3E0F9A3E0FA48
:100CE300A3E0FB12136ED082D083121A34050DE5F4
:100CF3000DB401A7050CE50CB4039DE4F50CE4F574
:100D03000DE50C75F00CA42488F582E43400F5831A
:100D130075F004E50D121A71C083C082E0FCA3E0F4
:100D2300FDA3E0FEA3E0FFE50C75F00CA424ACF5F5
:100D330082E43400F58375F004E50D121A71E0F8CE
:100D4300A3E0F9A3E0FAA3E0FB12136ED082D083F1
:100D5300121A34050DE50DB403A7050CE50CB40216
:100D63009D752602752701752800752988752A0344
:100D7300752B01752C00752DF27B017A00796C7D42
:100D830003121FC412216E1222DC12208912236265
:100D930090014AE0F8A3E0F9A3E0FAA3E0FBC00066
:100DA300C001C002C003900084E0F8A3E0F9A3E00F
:100DB300FAA3E0FB9000D4E0FCA3E0FDA3E0FEA3D4
:100DC300E0FF12136EE4FBFAF9783F121463C004D8
:100DD300C005C006C007900084E0F8A3E0F9A3E0D3
:100DE300FAA3E0FB9000D4E0FCA3E0FDA3E0FEA3A4
:100DF300E0FF12136ED003D002D001D000121463AF
:100E0300D003D002D001D00012245DC004C005C0BD
:100E130006C007900084E0F8A3E0F9A3E0FAA3E09A
:100E2300FB9000D4E0FCA3E0FDA3E0FEA3E0FF12EF
:100E3300136E7BCD7ACC794C783E121463D003D0F9
:100E430002D001D0001214639000D0121A34E4F5DA
:100E53000CE4F50DE50C25E025E0242EF582E434C1
:100E630001F58375F004E50D121A71E0FCA3E0FDB2
:100E7300A3E0FEA3E0FF9000D0E0F8A3E0F9A3E035
:100E8300FAA3E0FB121463E50C25E025E024C4F586
:100E930082E43400F58375F004E50D121A71121A19
:100EA30034050DE50DB401AC050CE50CB403A2E467
:100EB300F50CE4F50DE50C75F008A4246CF582E45B
:100EC3003400F58375F004E50D121A71E0FCA3E01C
:100ED300FDA3E0FEA3E0FFE50D75F00CA42418F5D7
:100EE30082E43400F58375F004E50C121A71121ACA
:100EF30034050DE50DB402BD050CE50CB403B3E4F4
:100F0300F50CE4F50DE4F50BF50AF509F508F50E16
:100F1300AB0BAA0AA909A808C000C001C002C003FC
:100F2300E50E25E025E024A0F582E43400F5837581
:100F3300F004E50D121A71E0FCA3E0FDA3E0FEA3AB
:100F4300E0FFE50C75F00CA42418F582E43400F5F9
:100F53008375F004E50E121A71E0F8A3E0F9A3E03B
:100F6300FAA3E0FB121463D003D002D001D0001225
:100F730013728F0B8E0A8D098C08050EE50EB403D0
:100F83008FAF0BAE0AAD09AC08E50C75F00CA424C9
:100F9300F2F582E43400F58375F004E50D121A715D
:100FA300121A34050DE50D64016003020F08050CE8
:100FB300E50C64026003020F05E4F50CE4F50DE5AE
:100FC3000C25E025E02416F582E43401F58375F061
:100FD30004E50D121A71E0FCA3E0FDA3E0FEA3E01B
:100FE300FFE50D75F00CA42422F582E43401F583AA
:100FF30075F004E50C121A71121A34050DE50DB4DF
:1010030001BD050CE50CB403B3E4F50CE4F50DE404
:10101300F50BF50AF509F508F50EAB0BAA0AA909B4
:10102300A808C000C001C002C003E50E75F00CA4FF
:101033002422F582E43401F58375F004E50D121AD8
:1010430071E0FCA3E0FDA3E0FEA3E0FFE50C75F077
:101053000CA424F2F582E43400F58375F004E50E64
:10106300121A71E0F8A3E0F9A3E0FAA3E0FB12146B
:1010730063D003D002D001D0001213728F0B8E0AFB
:101083008D098C08050EE50EB4018F9000D0E0FCAD
:10109300A3E0FDA3E0FEA3E0FFAB0BAA0AA909A806
:1010A300081214637BCD7ACC794C783E121463E535
:1010B3000C75F00CA424ACF582E43400F58375F0D0
:1010C30004E50D121A71121A34050DE50D6403605F
:1010D30003021012050CE50C6402600302100FE416
:1010E300F50CE4F50DE50C25E025E024A0F582E4FC
:1010F3003400F58375F004E50D121A71C083C082C4
:10110300E0FCA3E0FDA3E0FEA3E0FFE50C25E02562
:10111300E024C4F582E43400F58375F004E50D1290
:101123001A71E0F8A3E0F9A3E0FAA3E0FB12136E4F
:10113300D082D083121A34050DE50DB401A7050C36
:10114300E50CB4039DE4F50CE4F50DE50C75F00C2A
:10115300A42488F582E43400F58375F004E50D12C8
:101163001A71C083C082E0FCA3E0FDA3E0FEA3E00C
:10117300FFE50C75F00CA424ACF582E43400F58390
:1011830075F004E50D121A71E0F8A3E0F9A3E0FA93
:10119300A3E0FB12136ED082D083121A34050DE53F
:1011A3000DB403A7050CE50CB4029D7525FF752648
:1011B3002275272AE4FBFA7980784090014AE0FC03
:1011C300A3E0FDA3E0FEA3E0FF12156C8F2B8E2A94
:1011D3008D298C287B017A0079E8121B917525FFF4
:1011E3007526227527381223E27F057E0012255BC0
:1011F3007F777ECC7D2B7C3290014AE0F8A3E0F927
:10120300A3E0FAA3E0FB121609600540030200AA5B
:10121300121FA412216E1222DC1220891223629063
:1012230000D4E0FCA3E0FDA3E0FEA3E0FFA3121AB9
:1012330034752602752701752800752988752A03D8
:10124300752B01752C00752DF27B017A0079347DA5
:1012530003121FC412216E1222DC12208912236290
:101263009000D4E0FCA3E0FDA3E0FEA3E0FF900028
:10127300DC121A3475260275270175280075298832
:10128300752A03752B01752C00752DF27B017A00ED
:1012930079507D03121FC412216E1222DC122089A1
:1012A3001223629000D4E0FCA3E0FDA3E0FEA3E0E0
:1012B300FF9000E0121A3475260275270175280085
:1012C300752988752A03752B01752C00752DF27B02
:1012D300017A00796C7D03121FC412216E1222DC85
:1012E3001220891223629000D4E0FCA3E0FDA3E066
:1012F300FEA3E0FF9000E4121A347525FF75262241
:101303007527409000D8E0FCA3E0FDA3E0FEA3E036
:10131300F52B8E2A8D298C28A3E0FCA3E0FDA3E006
:10132300FEA3E0F52F8E2E8D2D8C2CA3E0FCA3E0E5
:10133300FDA3E0FEA3E0F5338E328D318C30A3E0C4
:10134300FCA3E0FDA3E0FEA3E0F5378E368D358CDC
:10135300347B017A0079E8121B917525FF752622EB
:081363007527541223E280FEFD
:10249F00C2A58B807F017E001224C8D2A77F057E44
:1024AF00001224C8C2A7EBC454F0F5807F017E0050
:0924BF001224C8D2A77F057E009B
:1024C800D3EF9400EE9400400F7DC77C01DCFEDD65
:0824D800FAEF1F70EB1E80E813
:0124E00022D9
:0C258900AB07C2A7C2A612249FC2A72263
:0C259500AB07C2A7D2A612249FC2A72247
:10253D007F321225897F281225897F0C1225897FEC
:0E254D00061225897F011225897F80022589CB
:10136B000216ABE86480F8E933E83360110460F0EF
:10137B00ED33EC337009E8FCE9FDEAFEEBFF2204E8
:10138B0060DED3EB9FEA9EE99DE8C2E78CF0C2F7E3
:10139B0095F0400CE8CCF8E9CDF9EACEFAEBCFFBAF
:1013AB0012167685D0F05804700320D5B3E804707C
:1013BB00075002B2D50216B592D5EC0460F7E4CC17
:1013CB00C0E0C398F8603B94186008400DD0E0FB78
:1013DB0002168DE4FBFAC9FC8028E830E406E4C968
:1013EB00FBE4CAFCE830E305E4C9CACBFCE85407CC
:1013FB006010F8C3E913F9EA13FAEB13FBEC13FCD7
:10140B00D8F130F52FC3E49CFCEF9BFFEE9AFEED79
:10141B0099FDD0E0FBEF4E4D4C701222DB03021610
:10142B00B2EC2CFCEF33FFEE33FEED33FDED30E78A
:10143B00EB02168DEF2BFFEE3AFEED39FDD0E0FB04
:10144B0050130BBB00030216B5ED13FDEE13FEEFAD
:08145B0013FFEC13FC02168DD7
:10146300EC4D6011E8497017ED33EC3304600DE483
:10147300FCFFFEFD22E933E8330470F80216AB12D9
:10148300167658046009E4CC2481500628500902DA
:1014930016B52840030216B2C0E0EB4A7044B98087
:1014A30006D0E0FB0216A1EF4E701CBD8008EBFFD7
:1014B300EAFEE9FD80EBE98DF0A4FEE5F002154CB0
:1014C300E9CDF9EAFEEBFFEF89F0A4FCE5F0CE8964
:1014D300F0A42EFFE435F0CD89F0A42DFEE435F021
:1014E3008067EF4E7005BD80D780C3EF8BF0A4AC4F
:1014F300F0EE8BF0A42CFCE435F0F8EF8AF0A42C8A
:10150300E5F038FCE433CB8DF0A42CFCE5F03BF89C
:10151300EE8AF0A42CFCE5F038F8E433CF89F0A48C
:101523002CFCE5F038CF3400CE89F0A42FFFE5F092
:101533003EFEE433C98DF0A42EFEE5F039CD8AF0EA
:10154300A42FFFE5F03EFEE43DFD33D0E0FB500762
:101553000BBB000F0216B5EC2CFCEF33FFEE33FE92
:06156300ED33FD02168DC0
:101569000216B5EC5D046005E8590470030216AB78
:10157900121676580460F6EC4860F2EC7004FDFE31
:10158900FF22C860DB2481C85009C3986002500655
:101599000216B29850CAF582E9294B4A7005AB8206
:1015A9000216A175F0007C1A7880C3EF9BEE9AEDC4
:1015B90099400DC3EF9BFFEE9AFEED99FDE842F0CD
:1015C900DC23ACF0D0E0FFD0E0FED0E0FDAB822020
:1015D900E7101BEB60BAEC2CFCEF33FFEE33FEEDAA
:1015E90033FD02168DE803F830E705C0F075F00009
:1015F900EF2FFFEE33FEED33FD40B830E7C280AA8E
:1016090074F8CC6480CCC86480C8F582046043C394
:10161900EB9FF5F0EA9E42F0E99D42F0E89C45F027
:1016290060305018E5825FFFE582F42B5582FB504C
:10163900210ABA001D09B90019088016E5825BFB69
:10164900E582F42F5582FF50090EBE00050DBD003D
:10165900010CC3EB9FF5F0EA9E42F0E99D42F0E8E8
:0D1669009C45F06007CC4820E701B3EC225F
:101B3500E5392425F8E6053922782230070278258B
:101B4500E475F001121A7D0219582000EB7F2ED2A0
:101B5500008018EF540F2490D43440D4FF30040B88
:101B6500EF24BFB41A0050032461FFE53A60021563
:101B75003A053DE53D7002053C30070D7822E475D8
:101B8500F001121A7DEF02199E0225167403D20781
:101B95008003E4C207F5398B228A238924E4F53AC8
:101BA500F53CF53DE53A60077F20121B7080F57521
:101BB5003BFFC201C200C202C203C205C206C2087F
:101BC500121B3EFF700D3007057F00121B81AF3DD4
:101BD500AE3C22B4255FC2D5C204121B3EFF24D001
:101BE500B40A00501A75F00A783A30D50508B6FFE0
:101BF5000106C6A426F620D5047002D20380D92496
:101C0500CFB41A00EF5004C2E5D204021E6ED20111
:101C150080C6D20080C0D20280BCD2D580BAD2059F
:101C250080B47F20121B702002077401B53A004072
:101C3500F1121B35FF121B70021BA9D208D20680B8
:101C450095121B35FB121B35FA121B35F94A4B70E1
:101C55000679657A1F7BFF20022EE53A602A7E0011
:101C65008E8275830012197160060EEE653B70F069
:101C7500C2D5EBC0E0EAC0E0E9C0E0EE121ECED06E
:101C8500E0F9D0E0FAD0E0FB121958FF60AAEBC0EA
:101C9500E0EAC0E0E9C0E0121B70D0E02401F9D011
:101CA500E03400FAD0E0FBE53B0460DCD53BD980AD
:101CB50087D20280A2121EB160F7E53B70010412C3
:101CC50016C0A93B600DE53B600914F53B121F5892
:101CD500EF60F3EA30E702F404C3995077EAF4259C
:101CE5003B0430E701E404F53B800D121EB160C1F1
:101CF500EA053B253B1216C0EA7838F630E701E4E1
:101D0500253B04D53B0420050114121ECEE4C0E09A
:101D1500121F587838E6601320E70714F6121B588F
:101D2500802204F6D0E014C0E07F00121B58E53B8A
:101D35006007121B4F153B800B300503121B4FD05C
:101D4500E0021BA9D0E00480C5121EB160A0E53BEE
:101D5500041216C07838EAF6E53B20050260010456
:051D65002404121ECE53
:101D6A0074FF04C0E0121F58121B58E53B200502FD
:101D7A006003121B4FD0E0B53BE87F45121B627827
:101D8A0038E67F2B30E7047F2DF404C0E0121B7085
:101D9A00D0E075F00A84C0F0121B59D0E0121B592A
:101DAA00021BA9791080027908C206C2088008D2EB
:101DBA00D5790A8004790AC2D5E53B047002F53B5D
:101DCA00E4FAFDFEFF121B35FC7B08200113121BEF
:101DDA0035FD7B1030000A121B35FE121B35FF7BC6
:101DEA0020EC3382D592D55013C3E43000069FFF0E
:101DFA00E49EFEE42001039DFDE49CFCE4CBF8C2D2
:101E0A0001EC700CCFCECDCCE824F8F870F3801733
:101E1A00C3EF33FFEE33FEED33FDEC33FCEB33FB64
:101E2A00994002FB0FD8E9EB300105F8D0E0C4482D
:101E3A00B201C0E00AEC4D4E4F78207B0070C2EA36
:101E4A00B53B0040BCC0E0121ED0D0F0D0E020016B
:101E5A0004C4C0E0C4B201C0F0121B59D0F0D5F0DE
:101E6A00EB021BA9121A8D1C46531DAD581C174CA8
:101E7A001C13421DB14F1DB9441DB9491C2C431DE9
:101E8A00BF551CF0461D4E451CBA471F85501C1BEA
:101E9A002D1C1F2E1C422B1C23231C40201F6E2A84
:101EAA001BDB4800001C3AE53BB4FF03753B0612F6
:101EBA001B35FC121B35FD121B35FE121B35FF7834
:101ECA00310216EF790AA2D5200314300509B91098
:101EDA00020404B9080104A2D52006025001042014
:101EEA0002689202B53A005034C0E07F20300319EC
:101EFA007F30A20272067205500F121F27C202C259
:101F0A0006C205C2087F30800F300503E9C0E0121F
:101F1A001B70300503D0E0F9D0E0B53ACC30051794
:101F2A007F30B9100C121B707F583004077F7880FD
:101F3A0003B90803121B703002057F2D021B707F44
:101F4A00202008F87F2B2006F322920280CF7F0000
:101F5A00B4070050052431F8E6FF22286E756C6C30
:101F6A002900D201121B353001F8C201783A30D566
:101F7A000108F6021BDB2D50434958121B35240376
:101F8A00B405004001E4901F8093121B61743A1259
:0A1F9A001B61D203753A04021DAD6D
:10167600E9D2E7C933E833F892D5EDD2E7CD33ECBA
:0716860033FC5002B2D52233
:10168D00EC30E7100FBF000C0EBE00080DBD0004BE
:10169D000BEB6014A2D5EB13FCED92E7FD2274FF6A
:1016AD00FCFDFEFF22E480F8A2D574FF13FC7D80C3
:0316BD00E480EFD7
:1016C000F920E72824F950037907E4F42402FB18F1
:1016D000DBFDE624FB5014E9600DE4F618E604F6A1
:0F16E000B40A08E4F6D9F57401F60A22C2D5223D
:1016EF00ED33EC3392D5FA602AB4FF33EDC2E77BCA
:1016FF00FF60067A177914E4227A17791D20D50432
:10170F007A177918224E614E002B494E46002D490B
:10171F004E4600E47A08F608DAFC7B00740722E8EC
:10172F00C0E0ECC0E0EDC0E0EEC0E0EFC0E0EA7575
:10173F00F010A4CAABF075F04DA42BFBE435F0FC10
:10174F00EA2410FAEB34C5FBEC34D9FCEDC2E7FF09
:10175F0075F056A4F42411C5F0F434C58FF0A42A03
:10176F00E5F03BE43CF620E714121822D0E0FFD05E
:10177F00E0FED0E0FDD0E0FC12156C8014F40412F2
:10178F001822D0E0FFD0E0FED0E0FDD0E0FC121434
:10179F0063D0E0F8E6FAEDD2E7CD33EC332482FBE9
:1017AF00E4C3CF33CFCE33CECD33CD33DBF37B0793
:1017BF0075F00A846004F6081B0AE5F0F6088FF04E
:1017CF00740AA4FFACF08EF0740AA42CFEACF05097
:1017DF00010C8DF0740AA42CFDE435F0F608DBDE65
:0317EF007407225A
:1017F2003F8000004120000042C80000447A0000FF
:10180200461C400047C35000497424004B18968080
:101812004CBEBC205A0E1BCA6753C21C749DC5AE77
:10182200FB60065407601C2323121850EB543860E7
:101832000912183C12184B121463ECF8EDF9EEFA87
:10184200EFCB22EB12184B80F1543803241C901773
:10185200F2FE93FC0EEE93FD0EEE930ECE93FF225C
:030000000225A135
:0C25A100787FE4F6D8FD75813D02000350
:10186200E709F608DFFA8046E709F208DFFA803E68
:1018720088828C83E709F0A3DFFA8032E309F60855
:10188200DFFA8078E309F208DFFA807088828C83BD
:10189200E309F0A3DFFA806489828A83E0A3F60871
:1018A200DFFA805889828A83E0A3F208DFFA804C4B
:1018B20080D280FA80C680D4806980F28033801022
:1018C20080A680EA809A80A880DA80E280CA80338B
:1018D20089828A83ECFAE493A3C8C582C8CCC58303
:1018E200CCF0A3C8C582C8CCC583CCDFE9DEE780D3
:1018F2000D89828A83E493A3F608DFF9ECFAA9F052
:10190200EDFB2289828A83ECFAE0A3C8C582C8CCA7
:10191200C583CCF0A3C8C582C8CCC583CCDFEADEC0
:10192200E880DB89828A83E493A3F208DFF980CC22
:1019320088F0EF60010E4E60C388F0ED2402B4041B
:101942000050B9F582EB2402B4040050AF232345C2
:0619520082239018B2731D
:10195800BB010689828A83E0225002E722BBFE028D
:09196800E32289828A83E49322C0
:10197100BB010CE58229F582E5833AF583E022502B
:1019810006E92582F8E622BBFE06E92582F8E22275
:0D199100E58229F582E5833AF583E493228F
:10199E00BB010689828A83F0225002F722BBFE0128
:0219AE00F32222
:1019B000BB010DE58229F582E5833AF583021ABF62
:1019C0005007E92582F8021AB3BBFE07E92582F821
:1019D000021ACBE58229F582E5833AF583021AD70C
:1019E000BB010DE58229F582E5833AF583021A34BD
:1019F0005007E92582F8021B1DBBFE07E92582F886
:041A0000021B29227A
:101A0400BB010DE58229F582E5833AF583021AF4D8
:101A14005007E92582F8021AE7BBFE07E92582F898
:101A2400021B00E58229F582E5833AF583021B0D4A
:0C1A3400ECF0A3EDF0A3EEF0A3EFF02225
:101A4000A8828583F0D083D082121A57121A5712B7
:101A50001A57121A57E473E493A3C583C5F0C583DC
:101A6000C8C582C8F0A3C583C5F0C583C8C582C8F0
:011A70002253
:0C1A7100A42582F582E5F03583F5832280
:101A7D00FAE6FB0808E6F925F0F618E6CA3AF6226A
:101A8D00D083D082F8E4937012740193700DA3A3E8
:101A9D0093F8740193F5828883E4737402936860FC
:061AAD00EFA3A3A380DFFC
:10251600EFB40A07740D122521740A309811A89990
:10252600B8130CC2983098FDA899C298B811F63025
:0725360099FDC299F59922FD
:10257400E4FFFE121958600C0FEF70010E09E970A8
:05258400F20A80EF22C5
:0C1AB300E6FC08E6FD08E6FE08E6FF225F
:0C1ABF00E0FCA3E0FDA3E0FEA3E0FF229A
:0C1ACB00E2FC08E2FD08E2FE08E2FF2257
:101AD700E493FC740193FD740293FE740393FF2255
:0D1AE700E6FB08E6F908E6FA08E6CBF8226F
:0C1AF400E0F8A3E0F9A3E0FAA3E0FB2275
:0D1B0000E2FB08E2F908E2FA08E2CBF82265
:101B0D00E493F8740193F9740293FA740393FB222E
:0C1B1D00ECF608EDF608EEF608EFF622F4
:0C1B2900ECF208EDF208EEF208EFF222F8
:00000001FF
