:0300000002007784
:0C007700787FE4F6D8FD75810D02005F73
:10005F007B057A007D017C007F647E001200037FA8
:08006F00E87E0312003980E86D
:10003900E4FDFCC3ED9FEE6480F8EC6480985015F4
:10004900E4FBFA0BBB00010AEB643C4A70F50DBDF9
:0500590000010C80DE37
:01005E00227F
:0C0003008E088F098C0A8D0B8A0C8B0D67
:10000F00900000C3E5829509E5086480F8E58364F4
:10001F0080985015D2B7AF0BAE0A120039C2B7AFE6
:09002F000DAE0C120039A380DAB9
:0100380022A5
:00000001FF
