:0300000002006B90
:0C006B00787FE4F6D8FD758108020003E0
:0A007700C0F9A4B0999283F88098B4
:10000300E4F508D2A1D2A0E50890007793F580200B
:10001300A02112005CE508C394095006E50804FF1B
:1000230080027F008F08EF90007793F58030A0FD6A
:1000330012005C20A1D912005CE508D394004006AD
:10004300E50814FF80027F098F08EF90007793F58E
:090053008030A1FD12005C80B6B2
:0E005C00E4FFFE0FBF00010EBE09F8BF60F505
:01006A002273
:00000001FF
