:030000000200B249
:0C00B200787FE4F6D8FD75810E0200F99D
:0A000E00C0F9A4B0999283F880981D
:1001AE0002080000010A00020CC0C0010E00010B83
:0101BE000040
:1001940075A88A758921758C3D758A14D28C758DE4
:0A01A40006758B06D28ED28780FE0E
:03000B0002001ED2
:10001E00C0E0C0F0C083C082C0D075D000C000C0A8
:10002E0001C002C003C004C005C006C007758C3DE8
:10003E00758A140509E509700205086414450870EF
:10004E0010F508F509050EE50EB43C05750E00B267
:10005E0087E50E75F00A120172FF3395E0FE740EFD
:10006E002FF58274003EF583E493F50DE50E75F0E1
:10007E000A120172AFF0EF3395E0FE740E2FF58287
:10008E0074003EF583E493F50CD007D006D005D06E
:10009E0004D003D002D001D000D0D0D082D083D0F3
:0400AE00F0D0E0327C
:03001B0002013EA1
:10013E00C0E0C0D075D000C000050AE50AB4201D8D
:10014E00750A00050BE50BB40303750B0175A0FFD3
:10015E00E50BF4F590740B250BF8E6F5A0D000D066
:04016E00D0D0E032DB
:1000BE00020194E493A3F8E493A34003F68001F2C3
:1000CE0008DFF48029E493A3F85407240CC8C33343
:1000DE00C4540F4420C8834004F456800146F6DF12
:1000EE00E4800B01020408102040809001AEE47EF3
:1000FE00019360BCA3FF543F30E509541FFEE49307
:10010E00A360010ECF54C025E060A840B8E493A3CD
:10011E00FAE493A3F8E493A3C8C582C8CAC583CAF8
:10012E00F0A3C8C582C8CAC583CADFE9DEE780BEB0
:0101BF00003F
:10017200C2D530F707B2D563F0FF05F030E70CB215
:10018200D5F4048463F0FF05F080018430D502F4D5
:02019200042245
:00000001FF
