:1000260000200020002000200020002000200020CA
:1000360000200020002000200020002000200020BA
:10004600FFFF0000000064DB8AAA8AAA8AABEEAA38
:10005600AAAAEAAB0000656695499549956F954A47
:10006600954962680000E000400840005A6B574A14
:100076005A4B52495B4B000000000000000055D16E
:100086005499549554955495549329D100000000E1
:10009600000000000000FFFFFFFFFDFFFAFFFC7FEE
:1000A600F1BFF75FFA5FFD5FFE3FFE3FFE1FFCCF2D
:1000B600FDEFF9E7F9F7FFFFFFFFFF3FFEBFFF0F79
:1000C600FED7FE5BFCB7FCAFFD1FFF1FFE0FFCE774
:1000D600F9F7FBF7F3F3FFFFFFFFFFFFFF9FFF5F5C
:1000E600FF87FE6BFEABFEDBFED7FF4FFF0FFE0763
:1000F600FCF3FBFBFBFBFFFFFFFFFE7FFD7FFE7FAD
:10010600F807F9F7FAEBFD5BFEBBFF37FF0FFE07BB
:10011600FCF3FBFBFBFBFFFFFFFFFFFFFF9FFF5F08
:10012600FF87FE6BFEABFEDBFED7FF4FFF0FFE0722
:10013600FCF3FBFBFBFBFFFFFFFFFF3FFEBFFF0FD9
:10014600FED7FE5BFCB7FCAFFD1FFF1FFE0FFCE7F3
:10015600F9F7FBF7F3F3002E002A002A002A002EF7
:10016600002C002400240024002E002E0022002E45
:100176000028002E002E0022002E0022002E002A2B
:10018600002A002E00220022002E0028002E002227
:10019600002E002E0028002E002A002E002E0022FF
:1001A600002200220022002E002A002E002A002E05
:0E01B600002E002A002E002200220000000071
:100F1F002020327F021F101F101F10FE00F010F054
:100F2F0010F0101F080F0816210E70F000F020406F
:100F3F0080700E02270258025902580257025802B7
:0B0F4F005302580221025802240258ED
:06000300AE071FEE70FACB
:0100090022D4
:100FD100D3EF9400EE940040147D6F7C00ED1D7002
:0D0FE100011CED4C70F7EF1F70E61E80E361
:010FEE0022E0
:050FB000120FB5AF05B2
:100FB5007E08EEC3940174809480400FC2A0EF3385
:0B0FC50092A1EF25E0FFD2A01E80E704
:010FD00022FE
:08102E00AF0474312CF8E6FD5B
:08103600C2A2120FB0D2A222E7
:08103E00AF0474392CF8E6FD43
:08104600C2A3120FB0D2A322D5
:08104E00AF0474412CF8E6FD2B
:08105600C2A4120FB0D2A422C3
:08105E00AF0474492CF8E6FD13
:08106600C2A5120FB0D2A522B1
:100B5C00E4FD7F091210367D037F0A1210367D07E3
:100B6C007F0B1210367D017F0C1210361D7F0F1279
:100B7C0010367F091210467D037F0A1210467D073E
:100B8C007F0B1210467D017F0C1210461D7F0F1239
:100B9C0010467F091210567D037F0A1210567D07EE
:100BAC007F0B1210567D017F0C1210561D7F0F12F9
:100BBC0010567F091210667D037F0A1210667D079E
:100BCC007F0B1210667D017F0C1210661D7F0F02C9
:020BDC001066A1
:100DB3007C01ECC3940974809480500612102E0CAD
:100DC30080F07C01ECC39409748094805006121067
:100DD3003E0C80F07C01ECC394097480948050062F
:100DE30012104E0C80F07C01ECC394097480948043
:0F0DF300500612105E0C80F07F0F7E00020FD1B1
:100E02007C01ECC3940974809480500612102E0C5D
:100E120080F07C01ECC39409748094805006121017
:100E22003E0C80F07C01ECC39409748094805006DF
:100E320012104E0C80F07C01ECC3940974809480F3
:0F0E4200500612105E0C80F07F0F7E00020FD161
:1001C400E52A700712066B8F318003E4F52AE531C6
:1001D40014700302026314700302030224FE70030A
:1001E40002029F1470030202D8147003020307244E
:1001F400036003020309E52E7003020309C2AFE49E
:10020400FDAF2B12042BAA06AB07AD2EAF2D1205A2
:1002140055E433FFE52C640370047E0180027E0004
:10022400EE5F600AE4F52C12107C7D03801FE52C40
:1002340004FDAF2B12042BAA06AB07AD2EAF2D1273
:1002440005555018052C12107CE52C14FDAF2B120B
:10025400042BAA06AB0712083E120E51D2AF22E5B8
:100264002E7003020309C2AF12054B5014052EE58C
:100274002E14FDAB30AA2FAF2D120842120E51805E
:10028400E71208F8120F5B12107C120D0A92021288
:1002940009A312083A120E51D2AF22E52E6066C2AB
:1002A400AFE52D14FFAB30AA2FAD2E120555E43364
:1002B400FFE52D60047E0180027E00EE5F60121572
:1002C4002DE52D04FFAB30AA2FAD2E120842120EDD
:1002D40051D2AF22E52E602DC2AFE52D04FFAB3025
:1002E400AA2FAD2E1205555012052DE52D14FFAB86
:1002F40030AA2FAD2E120842120E51D2AF22C2AF35
:06030400D20122D200220A
:03066800120DB3BD
:10066B00E4FF20B51EC3E55A9458E5599402500A8D
:10067B00055AE55A70130559800FE4F559F55A7F61
:10068B00018006755902755A5820B41EC3E528948B
:10069B0058E5279402500A0528E528701305278092
:1006AB000FE4F527F5287F02800675270275285879
:1006BB0020871EC3E5229458E5219402500A052297
:1006CB00E52270130521800FE4F521F5227F0380CD
:1006DB000675210275225820861EC3E5259458E520
:1006EB00249402500A0525E52570130524800FE498
:1006FB00F524F5257F06800675240275255820B64E
:10070B001EC3E5589458E5579402500A0558E5580E
:10071B0070130557800FE4F557F5587F0480067565
:10072B00570275585820B71CC3E5549458E5539499
:10073B000250090554E5547011055322E4F553F5A5
:0A074B00547F0522755302755458BF
:010755002281
:100F5B00788606E61870010685562B85522C752D62
:100F6B0003E4F52EE5556407700BE58A75F00784ED
:100F7B0085F0568006855556755507E58A5403F559
:020F8B005222F0
:10042B00EFB40700400302054690043BF8282873FD
:10043B000204500204730204A00204CC0204E6027C
:10044B000504020522ED14600F14600E14601224D3
:10045B00036003020546800280077AF07B000205E9
:10046B00467488FAFB020546ED14601414601814E8
:10047B00601C240360030205467AE87B00020546F4
:10048B007AC47B400205467A2E7B000205467A88A9
:10049B007BC0020546ED14601414601814601C2414
:1004AB000360030205467AE27B000205467A447B31
:1004BB00C00205467A8E7B000205467AC87B808097
:1004CB007AED14600C14600B14600A2403706C80BA
:1004DB0004800280007ACC7B008060ED14600C14E9
:1004EB00600B14600E24037052800280067AC67B68
:1004FB000080487A4C7B808042ED14600C14600BBA
:10050B0014600E24037034800280067A6C7B0080AA
:10051B002A7A8C7B408024ED1460101460131460D5
:10052B0016240370167A4E7B0080107A8C7B8080A9
:0F053B000A7AE47B0080047A4C7B40AF03AE0267
:01054A00228E
:0C107C00AD2CAF2B12042B8E2F8F3022D6
:08083A00AB30AA2FAD2EAF2D4B
:040842008F10A90565
:10084600E4FDEDC3940474809480504C7E00EB5418
:100856000FFFC3740C9510FCEFA804088005C33382
:10086600CE33CED8F9F4FFEEF4FEC374039D29FC13
:1008760025E0245FF8EE56FEEF0856FFEC25E0244F
:100886005FF8A60608A607EAC4F854F0C868FAEBAB
:10089600C4540F48FB0D80AAAA2FAB30E4FDEDC36C
:1008A60094047480948050497E00EB540FFFC37407
:1008B6000C952DFCEFA804088005C333CE33CED8A3
:1008C600F9FFC374039D252EFC25E0245FF8EE4650
:1008D600FEEF0846FFEC25E0245FF8A60608A6070B
:1008E600EAC4F854F0C868FAEBC4540F48FB0D800C
:0108F600AD54
:0108F70022DE
:100E5100E4FDEDC3940874809480503BED25E024BB
:100E61005FF9E7FF74322DF8A607ED25E02460F95C
:100E7100E7FF743A2DF8A607ED25E0246FF9E7FFA7
:100E810074422DF8A607ED25E02470F9E7FF744AB6
:070E91002DF8A6070D80BB40
:010E98002237
:100EDD00C3E5299414748094805003052922E4F508
:100EED002912054B500C052EE52E14FDAB30AA2F03
:100EFD0080171208F8120F5B12107C120D0A920265
:100F0D001209A3AB30AA2FAD2EAF2D120842120E2F
:020F1D0051225F
:0A108800438903D28CD2A9D2AF2213
:03000B00020CB430
:100CB400C0E0C0F0C083C082C0D075D000C000C006
:100CC40001C002C003C004C005C006C007758C0083
:100CD400758A00C3E523940A748094805004052324
:100CE4008009752300120EDD120DB3D007D006D093
:100CF40005D004D003D002D001D000D0D0D082D00F
:060D040083D0F0D0E032C4
:0D106E00E4FF3098FDC2AFAF99C298D2AF39
:01107B002252
:0B100800E6FC08E6FDAF04121013FF29
:081013008F993099FDC299226A
:10101B00120400FF600C121013740129F9E43AFA60
:02102B0080EE55
:01102D0022A0
:100FEF00759850438920758DFD758BFDD28EC29FEC
:090FFF00D29ED29CD2AFD2AC22EA
:03002300020BDEEF
:100BDE00C0E0C0D075D000C000C003C004C005C0C6
:010BEE0007FF
:100BEF00C2AC30980812106E8F5C755B01E4FBEBA2
:100BFF00C39410748094805020EB25E0245FF8E6B6
:100C0F00F50D08E6F50EE50DFCE50EFDAF0412102F
:100C1F0013AF051210130B80D6AF2B121013AF5654
:100C2F00121013785D12100878851210087FFF12CA
:040C3F001013D2AC10
:0F0C4300D007D005D004D003D000D0D0D0E032FD
:0A054B00E52E04FDAB30AA2FAF2D02
:080555008F108A118B12A90519
:10055D00D205AD30AC2FE4FBEBC3940474809480D2
:10056D00504D7E00ED540FFFC3740C952DFAEFA87E
:10057D0002088005C333CE33CED8F9F4FFEEF4FE76
:10058D00C374039B252EFA25E0245FF8EE56FEEF8B
:10059D000856FFEA25E0245FF8A60608A607ECC476
:1005AD00F854F0C868FCEDC4540F48FD0B80A9AC9D
:1005BD0011AD12E4FBEBC394047480948050407E23
:1005CD0000ED540FFFC3740C9510FAEFA8020880CC
:1005DD0005C333CE33CED8F9FFC374039B2925E071
:1005ED00245FF8EE56FEEF08564E6002C205ECC4CD
:1005FD00F854F0C868FCEDC4540F48FD0B80B6AC40
:10060D002FAD30E4FBEBC394047480948050497E8D
:10061D0000ED540FFFC3740C952DFAEFA80208805E
:10062D0005C333CE33CED8F9FFC374039B252EFA01
:10063D0025E0245FF8EE46FEEF0846FFEA25E024AC
:10064D005FF8A60608A607ECC4F854F0C868FCEDE0
:0A065D00C4540F48FD0B80ADA20548
:010667002270
:1008F800E4F51078117C00FD7BFF7A0179C0FE7F5A
:10090800041203DAE4FFEFC394107480948050302B
:10091800EF25E0245FF8E6FC08E654C0FDBCFF1DA7
:10092800BDC01AEF04FE74112510F8A6060510784C
:100938005E06E618700106E510640460030F80C6C1
:10094800E4F510E510C3940474809480504C74113D
:100958002510F8E6604014FFEFD39400748094806B
:100968004034EF25E0245FF808E6543FFDEF25E02A
:10097800245DF8E6FA08E654C0FBEAFCEB4DFDEF0F
:1009880025E0245FF8A60408A605E4785FF608E6E3
:0A099800543FF61F80C2051080A92D
:0109A2002232
:1009A300AD52AF5612042B8F828E83E4F9E9C394C0
:1009B30004748094805039C3740399FF25E0245F45
:1009C300F8E6FC08E654F0FDE582540FFBEB4DFD21
:1009D300EF25E0245FF8A60408A605E583C4F854D0
:1009E300F0C868F583E582C4540F48F5820980BDD9
:1009F3007905E9C3940A74809480504D785DE6FECE
:100A030008E6FF7D057C00120419E92FFFEC3EFE8A
:100A1300EF25E0FFEE33FE74522FF58274013EF5AD
:100A230083E493FE740193FFE925E0245FF8E6FC79
:100A330008E654F0FDEE4CFEEF4DFFE925E0245FA0
:090A4300F8A60608A6070980A91F
:010A4C002287
:100AD900E4FFEFC39413748094805021EF25E02440
:100AE90026F582E43400F583E493FC740193FDEF69
:100AF90025E0245FF8A60408A6050F80D5C20212D6
:100B09000F5B12107C1209A312083A120E5112102F
:100B19008820022AC3785EE6940118E69400501EE4
:100B29001201C412000E300007C200C2AF120756EC
:100B3900E55B640170DB120D60E4F55B80D3C2AF45
:100B4900C3785EE6940118E694004003020E9912F8
:020B59000C523C
:010B5B002277
:100D6000AF5CEF601D64016019EF64026014EF6412
:100D700003600FEF6404600AEF64056005EF64062A
:100D80007004855C5522752A01E55C249F6020244F
:100D9000FD601024F8601424FA600C24FD701375B3
:100DA0003102227531012275310522753104227517
:030DB000310322EA
:100C5200D205E4FFEFC3940874809480503FEF25DF
:100C6200E0244CF582E43400F583E493FC740193B0
:100C7200FDEF25E0245FF8A60408A605EF25E02491
:100C82005CF582E43400F583E493FC740193FDEF98
:100C920025E0246FF8A60408A6050F80B7120E51AE
:100CA20030050C120668EF24FD70F5C20580F102D2
:020CB2000756E3
:100E9900D205E4FFEFC39410748094805021EF25AC
:100EA900E0247CF582E43400F583E493FC74019337
:100EB900FDEF25E0245FF8A60408A6050F80D512EA
:100EC9000E5130050C120668EF24FD70F5C205803D
:040ED900F1020756C5
:100F8D00E4F529F523755606755202755507C2020B
:100F9D00C200C201F52A785DF608F67885F608F6E6
:030FAD00F55B22CF
:10075600D204120F8DE4FBEBC39410748094805086
:100766000DEB25E0245FF8E4F608F60B80E930048B
:1007760063E4F50FC3E50F94067480948050EFE4AC
:10078600FAEAC39404748094805045E4FBEBC39466
:1007960010748094805026E50FC454F02B25E02475
:1007A6009CF582E43400F583E493FE740193FFEB39
:1007B60025E0245FF8A60608A6070B80D0120E5186
:1007C600120E0212066BEF24FD7002C2040A80B1FB
:1007D600050F80A0D204E4FBEBC3941074809480D0
:1007E600500DEB25E0245FF8E4F608F60B80E9E40B
:1007F600FBEBC39408748094805021EB25E0246CB5
:10080600F582E43400F583E493FE740193FFEB254F
:10081600E02465F8A60608A6070B80D5120E51300F
:10082600040F120DB312066BEF24FD70F2C20480A2
:04083600EE020AD9EB
:100D0A00C205AD30AC2FE4FBEBC39404748094802D
:100D1A0050417E00ED540FFFC3740C952DFAEFA8D5
:100D2A0002088005C333CE33CED8F9FFC374039BC0
:100D3A00252E25E0245FF8EE56FEEF08564E600297
:100D4A00D205ECC4F854F0C868FCEDC4540F48FD51
:050D5A000B80B5A205AD
:010D5F002271
:10000E0030010D12066BEF64026005120DB380F322
:05001E00C201D2AF2277
:09109200120B5C120FEF0207566D
:03000000020A4DA4
:0C0A4D00787FE4F6D8FD758186020A94DB
:10030A00E709F608DFFA8046E709F208DFFA803ED5
:10031A0088828C83E709F0A3DFFA8032E309F608C2
:10032A00DFFA8078E309F208DFFA807088828C832A
:10033A00E309F0A3DFFA806489828A83E0A3F608DE
:10034A00DFFA805889828A83E0A3F208DFFA804CB8
:10035A0080D280FA80C680D4806980F2803380108F
:10036A0080A680EA809A80A880DA80E280CA8033F8
:10037A0089828A83ECFAE493A3C8C582C8CCC58370
:10038A00CCF0A3C8C582C8CCC583CCDFE9DEE78040
:10039A000D89828A83E493A3F608DFF9ECFAA9F0BF
:1003AA00EDFB2289828A83ECFAE0A3C8C582C8CC15
:1003BA00C583CCF0A3C8C582C8CCC583CCDFEADE2E
:1003CA00E880DB89828A83E493A3F208DFF980CC90
:1003DA0088F0EF60010E4E60C388F0ED2402B40489
:1003EA000050B9F582EB2402B4040050AF23234530
:0603FA00822390035A73F8
:10040000BB010689828A83E0225002E722BBFE02FA
:09041000E32289828A83E493222D
:10041900EF8DF0A4A8F0CF8CF0A428CE8DF0A42EF7
:02042900FE22B1
:100A5900021092E493A3F8E493A34003F68001F211
:100A690008DFF48029E493A3F85407240CC8C3339E
:100A7900C4540F4420C8834004F456800146F6DF6D
:100A8900E4800B0102040810204080900F1FE47ECF
:100A9900019360BCA3FF543F30E509541FFEE49362
:100AA900A360010ECF54C025E060A840B8E493A329
:100AB900FAE493A3F8E493A3C8C582C8CAC583CA54
:100AC900F0A3C8C582C8CAC583CADFE9DEE780BE0C
:010F5A000096
:00000001FF
